{
  "contractName": "Xamxam",
  "abi": [
    {
      "constant": true,
      "inputs": [],
      "name": "frozen",
      "outputs": [
        {
          "name": "",
          "type": "bool"
        }
      ],
      "payable": false,
      "stateMutability": "view",
      "type": "function"
    },
    {
      "constant": true,
      "inputs": [],
      "name": "name",
      "outputs": [
        {
          "name": "",
          "type": "string"
        }
      ],
      "payable": false,
      "stateMutability": "view",
      "type": "function"
    },
    {
      "constant": true,
      "inputs": [],
      "name": "INITIAL_SUPPLY",
      "outputs": [
        {
          "name": "",
          "type": "uint256"
        }
      ],
      "payable": false,
      "stateMutability": "view",
      "type": "function"
    },
    {
      "constant": true,
      "inputs": [],
      "name": "decimals",
      "outputs": [
        {
          "name": "",
          "type": "uint8"
        }
      ],
      "payable": false,
      "stateMutability": "view",
      "type": "function"
    },
    {
      "constant": false,
      "inputs": [
        {
          "name": "_spender",
          "type": "address"
        },
        {
          "name": "_subtractedValue",
          "type": "uint256"
        }
      ],
      "name": "decreaseApproval",
      "outputs": [
        {
          "name": "",
          "type": "bool"
        }
      ],
      "payable": false,
      "stateMutability": "nonpayable",
      "type": "function"
    },
    {
      "constant": true,
      "inputs": [],
      "name": "owner",
      "outputs": [
        {
          "name": "",
          "type": "address"
        }
      ],
      "payable": false,
      "stateMutability": "view",
      "type": "function"
    },
    {
      "constant": true,
      "inputs": [],
      "name": "symbol",
      "outputs": [
        {
          "name": "",
          "type": "string"
        }
      ],
      "payable": false,
      "stateMutability": "view",
      "type": "function"
    },
    {
      "constant": true,
      "inputs": [
        {
          "name": "",
          "type": "address"
        }
      ],
      "name": "students",
      "outputs": [
        {
          "name": "stipendAmount",
          "type": "uint256"
        }
      ],
      "payable": false,
      "stateMutability": "view",
      "type": "function"
    },
    {
      "constant": true,
      "inputs": [
        {
          "name": "",
          "type": "address"
        }
      ],
      "name": "freezeOf",
      "outputs": [
        {
          "name": "",
          "type": "uint256"
        }
      ],
      "payable": false,
      "stateMutability": "view",
      "type": "function"
    },
    {
      "constant": false,
      "inputs": [
        {
          "name": "_spender",
          "type": "address"
        },
        {
          "name": "_addedValue",
          "type": "uint256"
        }
      ],
      "name": "increaseApproval",
      "outputs": [
        {
          "name": "",
          "type": "bool"
        }
      ],
      "payable": false,
      "stateMutability": "nonpayable",
      "type": "function"
    },
    {
      "constant": false,
      "inputs": [
        {
          "name": "newOwner",
          "type": "address"
        }
      ],
      "name": "transferOwnership",
      "outputs": [],
      "payable": false,
      "stateMutability": "nonpayable",
      "type": "function"
    },
    {
      "inputs": [],
      "payable": false,
      "stateMutability": "nonpayable",
      "type": "constructor"
    },
    {
      "payable": true,
      "stateMutability": "payable",
      "type": "fallback"
    },
    {
      "anonymous": false,
      "inputs": [
        {
          "indexed": true,
          "name": "from",
          "type": "address"
        },
        {
          "indexed": true,
          "name": "to",
          "type": "address"
        },
        {
          "indexed": false,
          "name": "tokens",
          "type": "uint256"
        }
      ],
      "name": "Transfer",
      "type": "event"
    },
    {
      "anonymous": false,
      "inputs": [
        {
          "indexed": true,
          "name": "tokenOwner",
          "type": "address"
        },
        {
          "indexed": true,
          "name": "spender",
          "type": "address"
        },
        {
          "indexed": false,
          "name": "tokens",
          "type": "uint256"
        }
      ],
      "name": "Approval",
      "type": "event"
    },
    {
      "anonymous": false,
      "inputs": [
        {
          "indexed": true,
          "name": "from",
          "type": "address"
        },
        {
          "indexed": false,
          "name": "tokens",
          "type": "uint256"
        }
      ],
      "name": "Freeze",
      "type": "event"
    },
    {
      "anonymous": false,
      "inputs": [
        {
          "indexed": true,
          "name": "from",
          "type": "address"
        },
        {
          "indexed": false,
          "name": "tokens",
          "type": "uint256"
        }
      ],
      "name": "Unfreeze",
      "type": "event"
    },
    {
      "anonymous": false,
      "inputs": [
        {
          "indexed": true,
          "name": "from",
          "type": "address"
        },
        {
          "indexed": false,
          "name": "tokens",
          "type": "uint256"
        }
      ],
      "name": "Burn",
      "type": "event"
    },
    {
      "anonymous": false,
      "inputs": [
        {
          "indexed": true,
          "name": "from",
          "type": "address"
        },
        {
          "indexed": true,
          "name": "to",
          "type": "address"
        }
      ],
      "name": "OwnershipTransferred",
      "type": "event"
    },
    {
      "constant": true,
      "inputs": [],
      "name": "totalSupply",
      "outputs": [
        {
          "name": "_totalSupply",
          "type": "uint256"
        }
      ],
      "payable": false,
      "stateMutability": "view",
      "type": "function"
    },
    {
      "constant": true,
      "inputs": [
        {
          "name": "tokenOwner",
          "type": "address"
        }
      ],
      "name": "balanceOf",
      "outputs": [
        {
          "name": "balance",
          "type": "uint256"
        }
      ],
      "payable": false,
      "stateMutability": "view",
      "type": "function"
    },
    {
      "constant": true,
      "inputs": [
        {
          "name": "tokenOwner",
          "type": "address"
        },
        {
          "name": "spender",
          "type": "address"
        }
      ],
      "name": "allowance",
      "outputs": [
        {
          "name": "remaining",
          "type": "uint256"
        }
      ],
      "payable": false,
      "stateMutability": "view",
      "type": "function"
    },
    {
      "constant": false,
      "inputs": [
        {
          "name": "spender",
          "type": "address"
        },
        {
          "name": "tokens",
          "type": "uint256"
        }
      ],
      "name": "approve",
      "outputs": [
        {
          "name": "success",
          "type": "bool"
        }
      ],
      "payable": false,
      "stateMutability": "nonpayable",
      "type": "function"
    },
    {
      "constant": false,
      "inputs": [
        {
          "name": "to",
          "type": "address"
        },
        {
          "name": "tokens",
          "type": "uint256"
        }
      ],
      "name": "transfer",
      "outputs": [
        {
          "name": "success",
          "type": "bool"
        }
      ],
      "payable": false,
      "stateMutability": "nonpayable",
      "type": "function"
    },
    {
      "constant": false,
      "inputs": [
        {
          "name": "from",
          "type": "address"
        },
        {
          "name": "to",
          "type": "address"
        },
        {
          "name": "tokens",
          "type": "uint256"
        }
      ],
      "name": "transferFrom",
      "outputs": [
        {
          "name": "success",
          "type": "bool"
        }
      ],
      "payable": false,
      "stateMutability": "nonpayable",
      "type": "function"
    },
    {
      "constant": false,
      "inputs": [
        {
          "name": "tokens",
          "type": "uint256"
        }
      ],
      "name": "freeze",
      "outputs": [
        {
          "name": "success",
          "type": "bool"
        }
      ],
      "payable": false,
      "stateMutability": "nonpayable",
      "type": "function"
    },
    {
      "constant": false,
      "inputs": [
        {
          "name": "tokens",
          "type": "uint256"
        }
      ],
      "name": "unfreeze",
      "outputs": [
        {
          "name": "success",
          "type": "bool"
        }
      ],
      "payable": false,
      "stateMutability": "nonpayable",
      "type": "function"
    },
    {
      "constant": false,
      "inputs": [
        {
          "name": "tokens",
          "type": "uint256"
        }
      ],
      "name": "burn",
      "outputs": [
        {
          "name": "success",
          "type": "bool"
        }
      ],
      "payable": false,
      "stateMutability": "nonpayable",
      "type": "function"
    },
    {
      "constant": false,
      "inputs": [
        {
          "name": "tokens",
          "type": "uint256"
        }
      ],
      "name": "withdrawEther",
      "outputs": [],
      "payable": false,
      "stateMutability": "nonpayable",
      "type": "function"
    }
  ],
  "bytecode": "0x60806040526007805460a060020a60ff021916905534801561002057600080fd5b506000805433600160a060020a0319918216811783558083526004602090815260408085206a52b7d2dcc80cd2e40000009081905560068190556007805490951690931793849055805192835251600160a060020a0390931693927fddf252ad1be2c89b69c2b068fc378daa952ba7f163c4a11628f55a4df523b3ef9281900390910190a3610d46806100b46000396000f30060806040526004361061011c5763ffffffff7c0100000000000000000000000000000000000000000000000000000000600035041663054f7d9c811461011e57806306fdde0314610147578063095ea7b3146101d157806318160ddd146101f557806323b872dd1461021c5780632ff2e9dc14610246578063313ce5671461025b5780633bed33ce1461028657806342966c681461029e57806366188463146102b65780636623fc46146102da57806370a08231146102f25780638da5cb5b1461031357806395d89b4114610344578063a6c807a914610359578063a9059cbb1461037a578063cd4217c11461039e578063d73dd623146103bf578063d7a78db8146103e3578063dd62ed3e146103fb578063f2fde38b14610422575b005b34801561012a57600080fd5b50610133610443565b604080519115158252519081900360200190f35b34801561015357600080fd5b5061015c610464565b6040805160208082528351818301528351919283929083019185019080838360005b8381101561019657818101518382015260200161017e565b50505050905090810190601f1680156101c35780820380516001836020036101000a031916815260200191505b509250505060405180910390f35b3480156101dd57600080fd5b50610133600160a060020a036004351660243561049b565b34801561020157600080fd5b5061020a610501565b60408051918252519081900360200190f35b34801561022857600080fd5b50610133600160a060020a0360043581169060243516604435610507565b34801561025257600080fd5b5061020a6106b2565b34801561026757600080fd5b506102706106c1565b6040805160ff9092168252519081900360200190f35b34801561029257600080fd5b5061011c6004356106c6565b3480156102aa57600080fd5b5061013360043561071b565b3480156102c257600080fd5b50610133600160a060020a03600435166024356107c8565b3480156102e657600080fd5b506101336004356108b8565b3480156102fe57600080fd5b5061020a600160a060020a036004351661097e565b34801561031f57600080fd5b50610328610999565b60408051600160a060020a039092168252519081900360200190f35b34801561035057600080fd5b5061015c6109a8565b34801561036557600080fd5b5061020a600160a060020a03600435166109df565b34801561038657600080fd5b50610133600160a060020a03600435166024356109f1565b3480156103aa57600080fd5b5061020a600160a060020a0360043516610ac5565b3480156103cb57600080fd5b50610133600160a060020a0360043516602435610ad7565b3480156103ef57600080fd5b50610133600435610b70565b34801561040757600080fd5b5061020a600160a060020a0360043581169060243516610c36565b34801561042e57600080fd5b5061011c600160a060020a0360043516610c61565b60075474010000000000000000000000000000000000000000900460ff1681565b60408051808201909152600681527f58616d78616d0000000000000000000000000000000000000000000000000000602082015281565b336000818152600560209081526040808320600160a060020a038716808552908352818420869055815186815291519394909390927f8c5be1e5ebec7d5bd14f71427d1e84f3dd0314c0f7b2291e5b200ac8c7c3b925928290030190a350600192915050565b60065490565b6000600160a060020a038316151561051e57600080fd5b6000821161052b57600080fd5b600160a060020a03841660009081526004602052604090205482111561055057600080fd5b600160a060020a038316600090815260046020526040902054828101101561057757600080fd5b600160a060020a03841660009081526005602090815260408083203384529091529020548211156105a757600080fd5b600160a060020a0384166000908152600460205260409020546105d0908363ffffffff610cf516565b600160a060020a038516600090815260046020908152604080832093909355600581528282203383529052205461060d908363ffffffff610cf516565b600160a060020a038086166000908152600560209081526040808320338452825280832094909455918616815260049091522054610651908363ffffffff610d0716565b600160a060020a0380851660008181526004602090815260409182902094909455805186815290519193928816927fddf252ad1be2c89b69c2b068fc378daa952ba7f163c4a11628f55a4df523b3ef92918290030190a35060019392505050565b6a52b7d2dcc80cd2e400000081565b601281565b600754600160a060020a031633146106dd57600080fd5b600754604051600160a060020a039091169082156108fc029083906000818181858888f19350505050158015610717573d6000803e3d6000fd5b5050565b336000908152600a602052604081205482111561073757600080fd5b6000821161074457600080fd5b336000908152600a6020526040902054610764908363ffffffff610cf516565b336000908152600a6020526040902055600654610787908363ffffffff610cf516565b60065560408051838152905133917fcc16f5dbb4873280815c1ee09dbd06736cffcc184412cf7a71a0fdb75d397ca5919081900360200190a2506001919050565b336000908152600360209081526040808320600160a060020a03861684529091528120548083111561081d57336000908152600360209081526040808320600160a060020a0388168452909152812055610852565b61082d818463ffffffff610cf516565b336000908152600360209081526040808320600160a060020a03891684529091529020555b336000818152600360209081526040808320600160a060020a0389168085529083529281902054815190815290519293927f8c5be1e5ebec7d5bd14f71427d1e84f3dd0314c0f7b2291e5b200ac8c7c3b925929181900390910190a35060019392505050565b336000908152600960205260408120548211156108d457600080fd5b600082116108e157600080fd5b33600090815260096020526040902054610901908363ffffffff610cf516565b33600090815260096020908152604080832093909355600a9052205461092d908363ffffffff610d0716565b336000818152600a6020908152604091829020939093558051858152905191927f2cfce4af01bcb9d6cf6c84ee1b7c491100b8695368264146a94d71e10a63083f92918290030190a2506001919050565b600160a060020a031660009081526004602052604090205490565b600754600160a060020a031681565b60408051808201909152600381527f58414d0000000000000000000000000000000000000000000000000000000000602082015281565b60086020526000908152604090205481565b6000600160a060020a0383161515610a0857600080fd5b60008211610a1557600080fd5b33600090815260046020526040902054610a35908363ffffffff610cf516565b3360009081526004602052604080822092909255600160a060020a03851681522054610a67908363ffffffff610d0716565b600160a060020a0384166000818152600460209081526040918290209390935580518581529051919233927fddf252ad1be2c89b69c2b068fc378daa952ba7f163c4a11628f55a4df523b3ef9281900390910190a350600192915050565b60096020526000908152604090205481565b336000908152600360209081526040808320600160a060020a0386168452909152812054610b0b908363ffffffff610d0716565b336000818152600360209081526040808320600160a060020a0389168085529083529281902085905580519485525191937f8c5be1e5ebec7d5bd14f71427d1e84f3dd0314c0f7b2291e5b200ac8c7c3b925929081900390910190a350600192915050565b336000908152600a6020526040812054821115610b8c57600080fd5b60008211610b9957600080fd5b336000908152600a6020526040902054610bb9908363ffffffff610cf516565b336000908152600a6020908152604080832093909355600990522054610be5908363ffffffff610d0716565b33600081815260096020908152604091829020939093558051858152905191927ff97a274face0b5517365ad396b1fdba6f68bd3135ef603e44272adba3af5a1e092918290030190a2506001919050565b600160a060020a03918216600090815260056020908152604080832093909416825291909152205490565b600054600160a060020a03163314610c7857600080fd5b600160a060020a0381161515610c8d57600080fd5b60008054604051600160a060020a03808516939216917f8be0079c531659141344cd1fd0a4f28419497f9722a3daafe3b4186f6b6457e091a36000805473ffffffffffffffffffffffffffffffffffffffff1916600160a060020a0392909216919091179055565b600082821115610d0157fe5b50900390565b81810182811015610d1457fe5b929150505600a165627a7a72305820139890886a44315c98b1b56e2f0666da51eb8af1e93d27a256e7ae73b889e6400029",
  "source": "pragma solidity ^0.4.24;\n\nimport \"./ERC20Interface.sol\";\nimport \"openzeppelin-solidity/contracts/math/SafeMath.sol\";\nimport \"openzeppelin-solidity/contracts/ownership/Ownable.sol\";\nimport \"openzeppelin-solidity/contracts/token/ERC20/SafeERC20.sol\";\nimport \"openzeppelin-solidity/contracts/token/ERC20/StandardToken.sol\";\n\ncontract Xamxam is Ownable, StandardToken {\n    using SafeMath for uint256;\n\n    string public constant name = \"Xamxam\";\n    string public constant symbol = \"XAM\";\n    uint8 public constant decimals = 18;\n    uint256 public constant INITIAL_SUPPLY = 100000000 * 10**uint(decimals);\n\n    mapping(address => uint256) balances;\n\n    mapping(address => mapping (address => uint256)) allowed;\n\n    uint internal totalSupply_;\n\n    address public owner;\n    bool public frozen = false;\n\n    struct Student {\n        uint256 stipendAmount;\n\n        mapping(address => uint256) stipendOf;\n        mapping(address => bool) graduated;\n    }\n\n    mapping(address => Student) public students;\n    mapping(address => uint256) public freezeOf;\n    mapping(address => uint256) public balanceOf;\n\n\n    event Transfer(address indexed from, address indexed to, uint tokens);\n    event Approval(address indexed tokenOwner, address indexed spender, uint tokens);\n    event Freeze(address indexed from, uint tokens);\n    event Unfreeze(address indexed from, uint tokens);\n    event Burn(address indexed from, uint tokens);\n    event OwnershipTransferred(address indexed from, address indexed to);\n\n    modifier whenNotFrozen() {\n        require(!frozen);\n        _;\n    }\n\n    modifier whenFrozen() {\n        require(frozen);\n        _;\n    }\n    \n    constructor() public {\n        balances[msg.sender] = INITIAL_SUPPLY;\n        totalSupply_ = INITIAL_SUPPLY;\n        owner = msg.sender;\n\n        emit Transfer(0x0, owner, totalSupply_);\n    }\n\n    function totalSupply() public view returns (uint256 _totalSupply) {\n        return totalSupply_;\n    }\n\n    function balanceOf(address tokenOwner) public view returns (uint256 balance) {\n        return balances[tokenOwner];\n    }\n\n    function allowance(address tokenOwner, address spender) public view returns (uint remaining) {\n        return allowed[tokenOwner][spender];\n    }\n\n    function approve(address spender, uint tokens) public returns (bool success) {\n        allowed[msg.sender][spender] = tokens;\n        emit Approval(msg.sender, spender, tokens);\n        success = true;\n    }\n\n    function transfer(address to, uint tokens) public returns (bool success) {\n        if (to == 0x0) revert();\n        if (tokens <= 0) revert();\n\n        balances[msg.sender] = balances[msg.sender].sub(tokens);\n        balances[to] = balances[to].add(tokens);\n        emit Transfer(msg.sender, to, tokens);\n        success = true;\n    }\n\n    function transferFrom(address from, address to, uint tokens) public returns (bool success) {\n        if (to == 0x0) revert();\n        if (tokens <= 0) revert();\n        if (balances[from] < tokens) revert();\n        if (balances[to] + tokens < balances[to]) revert();\n        if (tokens > allowed[from][msg.sender]) revert();\n\n        balances[from] = balances[from].sub(tokens);\n        allowed[from][msg.sender] = allowed[from][msg.sender].sub(tokens);\n        balances[to] = balances[to].add(tokens);\n        emit Transfer(from, to, tokens);\n        success = true;\n    }\n\n    function freeze(uint256 tokens) public returns (bool success) {\n        if (balanceOf[msg.sender] < tokens) revert();\n        if (tokens <= 0) revert();\n\n        balanceOf[msg.sender] = balanceOf[msg.sender].sub(tokens);\n        freezeOf[msg.sender] = freezeOf[msg.sender].add(tokens);\n        emit Freeze(msg.sender, tokens);\n        success = true;\n    }\n\n    function unfreeze(uint256 tokens) public returns (bool success) {\n        if (freezeOf[msg.sender] < tokens) revert();\n        if (tokens <= 0) revert();\n\n        freezeOf[msg.sender] = freezeOf[msg.sender].sub(tokens);\n        balanceOf[msg.sender] = balanceOf[msg.sender].add(tokens);\n        emit Unfreeze(msg.sender, tokens);\n        success = true;\n    }\n\n    function burn(uint256 tokens) public returns (bool success) {\n        if (balanceOf[msg.sender] < tokens) revert();\n        if (tokens <= 0) revert();\n\n        balanceOf[msg.sender] = balanceOf[msg.sender].sub(tokens);\n        totalSupply_ = totalSupply_.sub(tokens);\n        emit Burn(msg.sender, tokens);\n        success = true;\n    }\n\n    function withdrawEther(uint256 tokens) public {\n        if(msg.sender != owner) revert();\n        owner.transfer(tokens);\n    }\n\n    function () public payable {\n        // This contract is payable. Any Ether sent will be used to support the students.\n    }\n\n}\n",
  "sourcePath": "/Users/fodediop/crypto/token/contracts/Xamxam.sol",
  "compiler": {
    "name": "solc",
    "version": "0.4.24+commit.e67f0147.Emscripten.clang"
  },
  "schemaVersion": "2.0.0",
  "updatedAt": "2018-06-16T16:35:46.450Z"
}